:020000040800F2
:10000000A0040020AD0200089B1C00088D1B000806
:10001000991C0008B90300089F2800080000000090
:10002000000000000000000000000000A11E000809
:10003000BB030008000000009D1C0008A31E000870
:10004000C7020008C7020008C7020008C70200086C
:10005000C7020008C7020008C7020008C70200085C
:10006000C7020008C7020008C7020008C70200084C
:10007000C7020008C7020008C7020008C70200083C
:10008000C7020008C7020008C7020008C70200082C
:10009000C7020008C7020008C7020008C70200081C
:1000A000C7020008C7020008C7020008C70200080C
:1000B000C7020008C7020008C7020008C7020008FC
:1000C000C7020008C7020008C7020008C7020008EC
:1000D000C7020008C7020008C7020008C7020008DC
:1000E000C7020008C702000800000000C70200089D
:1000F000C7020008C7020008C7020008C7020008BC
:10010000C7020008C7020008C7020008C7020008AB
:10011000C7020008C7020008C7020008C70200089B
:10012000C7020008C7020008C7020008C70200088B
:10013000C7020008C7020008C7020008C70200087B
:1001400000000000000000000000000000000000AF
:10015000C7020008C7020008C7020008C70200085B
:10016000C7020008C7020008C7020008C70200084B
:10017000C7020008C7020008C7020008000000000C
:10018000C7020008C7020008C7020008C70200082B
:10019000C7020008C7020008C7020008C70200081B
:1001A000C7020008C7020008C7020008C70200080B
:1001B000C7020008C7020008C7020008C7020008FB
:1001C000C7020008C7020008C7020008C7020008EB
:1001D000C7020008C7020008C7020008C7020008DB
:1001E000C7020008C7020008C7020008C7020008CB
:1001F000C7020008C7020008C7020008C7020008BB
:10020000C7020008C7020008C7020008C7020008AA
:10021000C7020008C7020008C7020008C70200089A
:10022000C7020008C7020008C7020008000000005B
:10023000C7020008C702000800000000C70200084B
:10024000C7020008C7020008C7020008C70200086A
:10025000C7020008C7020008C7020008C70200085A
:10026000C7020008C7020008C7020008C70200084A
:10027000C7020008C7020008C7020008000000000B
:10028000C7020008C7020008C702000800000000FB
:1002900000000000C7020008DFF80CD000F07AF878
:1002A00000480047C1280008A004002006488047F5
:1002B00006480047FEE7FEE7FEE7FEE7FEE7FEE74B
:1002C000FEE7FEE7FEE7FEE7651F0008990200086B
:1002D0002DE9F05F0546002092469B46884606467B
:1002E000814640241BE0284641464746224600F00E
:1002F00041F853465A46C01A914110D31146184648
:10030000224600F028F82D1A67EB01084F462246D6
:100310000120002100F01FF817EB00094E41201EBC
:10032000A4F10104DFDC484631462A464346BDE8D5
:10033000F09FD2B201E000F8012B491EFBD27047BA
:100340000022F6E710B513460A4604461946FFF7A1
:10035000F0FF204610BD202A04DB203A00FA02F10B
:10036000002070479140C2F1200320FA03F31943A3
:1003700090407047202A04DB203A21FA02F0002145
:10038000704721FA02F3D040C2F1200291400843A5
:1003900019467047064C074D06E0E06840F001033F
:1003A00094E8070098471034AC42F6D3FFF778FF83
:1003B0003C2900085C290008FEE7704770470000F0
:1003C0002DE9FC4F5A4A0A275A4C02444FEAB223FD
:1003D000A04208BF09274FF0000A4FF0010B4FF071
:1003E00000090024092B38BF4FEAB227009795E097
:1003F0000BFA04F215EA020C00F08B80D1F804E04D
:100400004EF01006122E11D16FF0030303EA5406CA
:10041000064409F01C07336A0F25BD40AB430D6944
:1004200005FA07F73B433362D1F804E0032503687C
:1004300005FA0AF50EF00306AB4306FA0AF6334353
:10044000BEF1120F03606FEA050815D80BFA0EF320
:1004500013F0061F10D08368CD6803EA080305FA7D
:100460000AF52B4383604368CEF3001523EA0202AA
:1004700005FA04F31A434260C2688B6802EA080274
:1004800003FA0AF31A435FEACE03C26041D5634A16
:100490001346294D12680F2642F002021A604FF0EF
:1004A000B04E1A6802F00202019224F00302019B8E
:1004B00009F00C0357599E40B743009E06FA03F318
:1004C0003B435351194A1546D26F4B6842EA0C0719
:1004D000DE0358BF22EA0C07EF679E03D5F88020A1
:1004E00042EA0C0758BF22EA0C07C5F88070DEF814
:1004F0000020DE0242EA0C0758BF22EA0C07CEF8C1
:1005000000702A689B0242EA0C0758BF22EA0C07D7
:100510002F60013409F104090AF1020A0D6835FA65
:1005200004F27FF465AFBDE8FC8F00BF0400005803
:100530000000FEA70024025808040058002A08BF43
:10054000090481617047000001480068000C704791
:100550000010005C05480068704700BF274800781D
:1005600002490A6810440860704700BF9C000020E0
:1005700080B5032000F074F800F074FF5A490A684F
:10058000C2F30322624B9A5C02F01F02D040574A2A
:100590001060096801F00F01595C01F01F01C840AB
:1005A00005490860002000F009F808B1012080BD6D
:1005B00000F026F8002080BD0C00002070B50F4E22
:1005C0003178C1B104464FF47A70B0FBF1F047497D
:1005D0000968B1FBF0F001F0FDF90F2C4FF00105B7
:1005E0000AD848B94FF0FF3000222146002500F01C
:1005F00017F8746000E00125284670BD0000002057
:1006000081B00648016841F002010160006800F015
:1006100002000090009801B0704700BFF4440258F7
:1006200080B5154B1B68C3F3022C8CF0070EBEF18E
:10063000040F28BF4FF0040EBCF103034FF0FF3C42
:1006400038BF00230CFA0EFE21EA0E0199400CFA85
:1006500003F39A431143BDE8804002F021B900BF83
:1006600005490A684FF6FF031A4060F30A2203485F
:1006700010430860704700BF0CED00E00000FA0571
:10068000B0B5104D2968490704D4296801F0070165
:10069000814215D1296821F0070108432860FFF73E
:1006A00059FF044655F8080C800407D4FFF752FFA1
:1006B000001BB0F57A7FF5D90320B0BD0020B0BD96
:1006C0000120B0BD0C48025880B500F0CBFE0649B1
:1006D0000F4A0968C1F30321515C01F01F01C840B2
:1006E0000249086080BD00BF18440258080000207D
:1006F00080B500F083FE0549054A0968C1F302117F
:10070000515C01F01F01C84080BD00BF2044025869
:100710001C29000810B53C4CA36AA26AC2F3053C30
:10072000E26AE16B02F01002C1F3CC01BCF1000FF0
:1007300002FB01F100EE101AB8EE400A0AD003F0F5
:100740000303022B0AD063B9216889060CD49FEDFC
:10075000311A13E00021C0E9001153E09FED2C1A7B
:100760000CE09FED2A1A09E021682B4AC1F3C10170
:1007700022FA01F101EE101AB8EE411A02EE10CA87
:100780009FED263AB8EE422AA16B6FF35F2181EE0E
:10079000021A02EE101AB8EE422AA16BC1F34621EA
:1007A00000EE032AB7EE000A03EE101A32EE002A1A
:1007B000B8EE433A21EE021A33EE002A81EE022A05
:1007C000BCEEC22A80ED002AA16BC1F3064102EE05
:1007D000101AB8EE422A32EE002A81EE022ABCEE4E
:1007E000C22A80ED012AA16BC1F3066102EE101A44
:1007F000B8EE422A32EE000A81EE000ABCEEC00AD0
:1008000010EE101A816010BD004402580024744A92
:100810000024F44A0024744C0090D00300000039F6
:1008200010B53C4CA36AA26AC2F3055CE26A616C33
:1008300002F48072C1F3CC01BCF1000F02FB01F1A4
:1008400000EE101AB8EE400A0AD003F00303022BA0
:100850000AD063B9216889060CD49FED311A13E0E0
:100860000021C0E9001153E09FED2C1A0CE09FED30
:100870002A1A09E021682B4AC1F3C10122FA01F1C9
:1008800001EE101AB8EE411A02EE10CA9FED263A98
:10089000B8EE422A216C6FF35F2181EE021A02EE5C
:1008A000101AB8EE422A216CC1F3462100EE032A49
:1008B000B7EE000A03EE101A32EE002AB8EE433A01
:1008C00021EE021A33EE002A81EE022ABCEEC22A81
:1008D00080ED002A216CC1F3064102EE101AB8EE39
:1008E000422A32EE002A81EE022ABCEEC22A80EDB4
:1008F000012A216CC1F3066102EE101AB8EE422AF9
:1009000032EE000A81EE000ABCEEC00A10EE101AA8
:10091000816010BD004402580024744A0024F44A47
:100920000024744C0090D003000000392DE9F047FA
:100930000446C078AC4F000721D5606E4FEA3051B5
:10094000032908D8DFE801F002090E16F96941F41D
:100950000031F9610EE0012612E0201D022101F0B4
:100960009FF904E004F12400022101F019FA06467F
:1009700030B9606E396C21F44011084338640026A8
:100980006078BA46C00701D1354629E0606D042879
:100990000BD83546DFE800F0030C11171700F86993
:1009A000354640F40030F8610DE00125012718E0DC
:1009B000201D002101F074F904E004F1240000215D
:1009C00001F0EEF90546002D2F460AD1DAF8400075
:1009D000002520F00700616D08435246CAF8400028
:1009E0003746607880072CD5A06D4FEAB0100428F8
:1009F0000CD8DFE800F0030E13191900DAF81C0018
:100A0000514640F40030CAF81C000DE001250126D3
:100A100018E0201D002101F043F904E004F1240056
:100A2000002101F0BDF90546002D2E460AD1DAF865
:100A30004000002520F4E070A16D08435246CAF83A
:100A400040003E466078400702D4B04657462BE04F
:100A5000D4F8A40057464FEA7050042809D8DFE8BC
:100A600000F0030C11171700F86940F40030F8612A
:100A70000EE001254FF0010816E0201D002101F0D5
:100A80000FF904E004F12400002101F089F9054682
:100A9000002DA84608D1B86C002520F46000D4F8D9
:100AA000A4100843B046B864607800072BD5D4F88A
:100AB000A8004FEA3060042809D8DFE800F0030BF3
:100AC00010161600F86940F40030F8610DE00125B9
:100AD000012719E0201D002101F0E2F804E004F1F3
:100AE0002400002101F05CF90546002D2F460BD1B2
:100AF000DAF84800002520F0E060D4F8A810084398
:100B00005246CAF848004746E078800725D5A06CD1
:100B10004FEA301003280BD8DFE800F012020D1264
:100B2000DAF81C00514640F40030CAF81C0007E017
:100B30000125012612E0201D022101F0B1F8054631
:100B4000002D2E460AD1DAF83C00002520F03000B6
:100B5000A16C08435246CAF83C003E466078C00685
:100B60002CD5E06D4FEA303004280CD8DFE800F0D7
:100B7000030E13191900DAF81C00514640F4003036
:100B8000CAF81C000DE00125012718E0201D0021F6
:100B900001F086F804E004F12400002101F000F9DE
:100BA0000546002D2F460AD1DAF84000002520F432
:100BB000E040E16D08435246CAF84000374660788D
:100BC000800626D5206E4FEA3040052809D8DFE898
:100BD00000F013030D131313201D012101F060F821
:100BE00009E00125012615E01044025804F1240013
:100BF000012101F0D5F80546002D2E460AD1DAF87C
:100C00004000002520F4E020216E08435246CAF837
:100C100040003E466078400626D5D4F8AC004FEA46
:100C20003070052809D8DFE800F011030B1111110D
:100C3000201D012101F034F807E00125012714E00F
:100C400004F12400012101F0ABF80546002D2F46E8
:100C50000BD1DAF84800002520F0E040D4F8AC10C1
:100C600008435246CAF8480037466078000621D546
:100C7000E06E90B1B0F1005F0AD0B0F1805F2DD18D
:100C8000DAF81C00514640F40030CAF81C0004E0B9
:100C9000201D012101F004F80546002D2E460AD141
:100CA000DAF84000002520F04050E16E084352463B
:100CB000CAF840003E46E078C00702D1B046574629
:100CC00023E0606C574603280BD8DFE800F01302DE
:100CD0000E13F86940F40030F8610BE0012501269D
:100CE000E9E701254FF001080FE0201D022100F087
:100CF000D7FF0546002DA84607D1F86B002520F048
:100D00000300616C0843B046F863A078400601D444
:100D1000474617E0D7F8F00340F48070C7F8F003B7
:100D2000FFF718FC0646D7F8F003C00507D4FFF715
:100D300011FC801B6428F6D90325032702E0002D4F
:100D40002F4611D02078C0074FD0A06F4FEAF00097
:100D5000052834D8DFE800F03C03363C3C3C201D3D
:100D6000012100F09DFF32E0DAF860105346D4F81C
:100D7000B000414011F4407F0BD0196E1A6E21F47F
:100D8000407142F480321A661A6E22F480321A667A
:100D90001966B0F5807F40F01882FFF7DBFB06464E
:100DA00041F2883903250327DAF86000800700F153
:100DB0000982FFF7CFFB801B4845F5D9C2E7012523
:100DC000012613E004F12400012100F0E9FF0546AB
:100DD000002D2E460AD1DAF84400002520F0380014
:100DE000A16F08435246CAF844003E462078800767
:100DF00022D5606F052809D8DFE800F011030B1138
:100E00001111201D012100F04BFF07E001250127F2
:100E100013E004F12400012100F0C2FF0546002D7B
:100E20002F460AD1DAF84400002520F00700616F50
:100E300008435246CAF8440037462078400724D574
:100E4000D4F89000052809D8DFE800F011030B1151
:100E50001111201D012100F023FF07E001250126CB
:100E600014E004F12400012100F09AFF0546002D52
:100E70002E460BD1DAF84800002520F00700D4F800
:100E8000901008435246CAF848003E462078800633
:100E900026D5D4F88C004FEA3070052809D8DFE851
:100EA00000F011030B111111201D002100F0F8FEBC
:100EB00007E00125012714E004F12400022100F0DD
:100EC0006FFF0546002D2F460BD1DAF844000025B0
:100ED00020F0E040D4F88C1008435246CAF8440091
:100EE00037462078400626D5D4F898004FEAB0203F
:100EF000052809D8DFE800F011030B111111201D9E
:100F0000002100F0CDFE07E00125012614E004F1E8
:100F10002400022100F044FF0546002D2E460BD18F
:100F2000DAF84800002520F4E050D4F8981008437F
:100F30005246CAF848003E462078000626D5D4F826
:100F40009C004FEA7030052809D8DFE800F0110353
:100F50000B111111201D002100F0A2FE07E0012558
:100F6000012714E004F12400022100F019FF0546D6
:100F7000002D2F460BD1DAF84800002520F4604000
:100F8000D4F89C1008435246CAF8480037462068F7
:100F9000010716D5D4F88010B1F5805F09D104F1AE
:100FA0002400022100F0FCFE002818BF0127206861
:100FB00007E0DAF84420534622F440521143CAF8BD
:100FC0004410C10616D5D4F89410B1F5807F09D12C
:100FD00004F12400022100F0E3FE002818BF0127DD
:100FE000206807E0DAF84820534622F440721143A3
:100FF000CAF84810000321D5D4F8A000B0F5003F8E
:101000000ED0B0F5803F05D080BB201D002100F040
:1010100047FE04E004F12400022100F0C1FE054671
:10102000002D2E460BD1DAF84800002520F4403080
:10103000D4F8A01008435246CAF848003E46A078AB
:1010400040072AD5D4F88400B0F5401F17D0B0F57A
:10105000001F0ED0B0F5801F40F0AF80DAF81C0002
:10106000514640F40030CAF81C0008E00125012672
:10107000E5E704F12400012100F092FE0546002D71
:101080002F460BD1DAF84400002520F44010D4F8A4
:10109000841008435246CAF844003746A078C00777
:1010A00001D13E4621E0E06CB0F5803F08D0D0B9D8
:1010B000DAF81C00514640F40030CAF81C0004E085
:1010C000201D022100F0ECFD0546002D2E460CD11E
:1010D000DAF83C00002520F48030E16C08435246E9
:1010E000CAF83C00DDE7012501262068810008D50B
:1010F00004F12400022100F053FE002818BF01264D
:101100002068810319D5E16F6FF0010202EB3122F3
:10111000022A0AD34FEA31223AB1012A50D1DAF831
:101120001C2042F40032CAF81C203DB9DAF84420F1
:1011300022F440721143CAF844103546C10207D563
:10114000DAF8401021F00041226F1143CAF8401034
:10115000C10008D5DAF8001021F48041D4F8B42099
:101160001143CAF80010810207D5DAF8401021F0C7
:101170008071A26E1143CAF8401041000CD5DAF814
:10118000001021F40041CAF80010D4F8B810DAF8C1
:1011900000201143CAF80010B0F1FF3F07DCDAF875
:1011A0003C0020F04050216D0843CAF83C00002D5F
:1011B00018BF01252846BDE8F087012501276DE706
:1011C0000125BBE75346D4F8B00000F440711A681B
:1011D000B1F5407F22F47C5103D1064A02EA101295
:1011E000114319606FF31F30196E0025084318660C
:1011F0008EE500BFCFFFFF002DE9F843002800F087
:10120000F48004467B4D286800F00F008846884231
:101210000BD2286820F00F0040EA080028602868F8
:1012200000F00F00404540F0E0802068C44F4107C7
:101230000AD52169BA6902F07002914204D9BA69EB
:1012400022F070021143B96101070AD56169FA6998
:1012500002F07002914204D9FA6922F0700211433F
:10126000F961C1060AD5A169FA6902F4E062914206
:1012700004D9FA6922F4E0621143F96181060AD5C2
:10128000E1693A6A02F07002914204D93A6A22F0A6
:1012900070021143396210F002010AD0E268BB69A2
:1012A00003F00F039A4204D9BB6923F00F031A43DA
:1012B000BA61C20737D0B86920F47061D4E901027D
:1012C00011430328B96105D0022807D13968890381
:1012D0000CD48AE03968890108D486E0012839688D
:1012E00002D1C90502D480E049077ED53969A946F3
:1012F00021F0070108433861FFF72CF9064641F257
:101300008835386900F038006168B0EBC10F06D04D
:10131000FFF720F9801BA842F3D9032066E020687C
:101320004D4600F0020151B1E168BA6902F00F02C6
:10133000914204D2BA6922F00F021143B9612968BF
:1013400001F00F0141450AD9296821F00F0141EA56
:1013500008012960296801F00F01414545D1410785
:101360000AD52169BA6902F07002914204D2BA69C1
:1013700022F070021143B96101070AD56169FA6967
:1013800002F07002914204D2FA6922F07002114315
:10139000F961C1060AD5A169FA6902F4E0629142D5
:1013A00004D2FA6922F4E0621143F96180060AD599
:1013B000E069396A01F07001884204D2396A21F08B
:1013C00070010843386200F04DF8B969C1F3032198
:1013D000234A515C084A01F01F0120FA01F1002064
:1013E0001160BDE8F843FFF7E9B8012001B0BDE89E
:1013F000F08300BF002000520800002080B5FFF7F6
:1014000063F90649164A096801F00F01515C01F0C1
:101410001F01C8400249086080BD00BF184402583F
:101420000C00002080B5FFF7E9FF0C490C4A096861
:10143000C1F30211515C01F01F01C84080BD00BF23
:1014400080B5FFF7DBFF0549054A0968C1F30221B2
:10145000515C01F01F01C84080BD00BF1C44025810
:101460001C29000836490869C0F3C20003280CD0C3
:10147000022828D048BB08688006374858BF704704
:101480000968C1F3C101C84070478A6A886AC0F31D
:10149000051CCB6A486B03F00103C0F3CC00BCF120
:1014A000000F03FB00F000EE100AB8EE400A0ED069
:1014B00002F00302022A0CD072B9086880060ED42A
:1014C0009FED241A15E0204870471E487047002001
:1014D00070479FED1F1A0CE09FED1C1A09E0086889
:1014E0001D4AC0F3C10022FA00F001EE100AB8EE66
:1014F000411A02EE10CA9FED193AB8EE422A086B63
:101500006FF35F2081EE021A02EE100AB8EE422A53
:10151000086BC0F3462000EE032AB7EE000A013044
:1015200032EE000A21EE000A01EE100AB8EE411A6E
:1015300080EE010ABCEEC00A10EE100A704700BF30
:101540000044025800093D0000127A000024744A49
:101550000024F44A0024744C0090D00300000039A9
:10156000F8B5002800F05B8104460078CF4EC00734
:101570004AD0306900F03801B06A102905D0182926
:1015800009D100F00300022805D1306880033BD563
:101590006068C8BB43E1606868B1B0F5803F06D0C1
:1015A000B0F5A02F30681CD140F480203060306846
:1015B00040F480301BE0306820F4803030603068C8
:1015C00020F480203060FEF7C5FF054630688003B8
:1015D0001AD5FEF7BFFF401B64284FF00300F5D972
:1015E00032E120F480303060306820F480203060B8
:1015F000FEF7B0FF05463068800305D4FEF7AAFF6A
:10160000401B6428F7D91EE1207880075BD530693C
:1016100010F03801B06A18D0182908BF5FEA80704E
:1016200013D0E0680028316836D021F01901084352
:101630003060FEF78FFF0546306840071FD4FEF785
:1016400089FF401B0228F7D9FDE030684007E068B9
:1016500002D5002800F0E380316821F01901084329
:101660003060FEF777FF05463068400707D4FEF785
:1016700071FF401B02284FF00300F5D9E4E0FEF7AC
:1016800063FF41F203018842706816D820F47C3071
:10169000216940EA013015E021F001003060FEF7D9
:1016A00059FF0546306840070DD5FEF753FF401B34
:1016B00002284FF00300F5D9C6E020F0FE40216972
:1016C00040EA016070602078C0064ED5306900F0B5
:1016D0003801B06A082905D018290AD100F00300A2
:1016E000012806D13068C00518D5E069802815D0DA
:1016F00095E0E0690028306826D040F08000306036
:10170000FEF728FF05463068C00507D4FEF722FF24
:10171000401B02284FF00300F5D995E0FEF714FFB7
:1017200041F20301884207D8706820F0F840216A2E
:1017300040EA8160706018E0F06820F07C50216A17
:1017400040EA0160F06010E020F080003060FEF7B9
:1017500001FF05463068C00507D5FEF7FBFE401BBC
:1017600002284FF00300F5D96EE02078000723D55A
:1017700060690028706F0ED040F001007067FEF7BE
:10178000E9FE0546706F800716D4FEF7E3FE401BA6
:101790000228F7D957E020F001007067FEF7DAFE63
:1017A0000546706F800707D5FEF7D4FE401B022860
:1017B0004FF00300F5D947E02078800623D5A069D3
:1017C000002830680ED040F480503060FEF7C2FE32
:1017D00005463068800416D4FEF7BCFE401B022884
:1017E000F7D930E020F480503060FEF7B3FE0546B4
:1017F0003068800407D5FEF7ADFE401B02284FF08D
:101800000300F5D920E0207840070AD4656A002D4E
:1018100000F0C680306900F03800182825D101207A
:1018200012E0D6F8000440F48070C6F80004FEF719
:1018300091FE0546D6F80004C00507D4FEF78AFEDF
:10184000401B6428F6D9032001B0F0BDA06878B32E
:10185000012806D00528306F40F0A48040F0040035
:101860003067306F40F00100A2E0306820F08070F7
:101870003060FEF76FFE022D05460AD13068800108
:101880002ED5FEF767FE401B02284FF00300F5D966
:10189000DAE73068800140F18380FEF75BFE401B91
:1018A00003284FF00300F4D3CEE700BF00440258F2
:1018B000306F20F001003067306F20F00400306797
:1018C000FEF748FE054641F28837306F80079DD508
:1018D000FEF740FE401BB8424FF00300F5D9B3E7D6
:1018E000B06A40F2F3318843A16A226B0843511E6B
:1018F000626B4FF47E4303EB4222E36A6FF35F2196
:1019000092B240EA0310B0625018A16B4FF4FE028D
:1019100002EB014101F4FE010844E16B4FF0FE428D
:1019200002EB016101F0FE41084430634FF6F871AB
:10193000F06A20F00100F062706B8843A16C40EA0D
:10194000C1007063F06A20F00C00216C0843F06263
:10195000F06A20F00200616C0843F062F06A40F423
:101960008030F062F06A40F40030F062F06A40F4D7
:101970008020F062F06A40F00100F062306840F0D0
:1019800080703060FEF7E6FD04463068800107D4C1
:10199000FEF7E0FD001B02284FF00300F5D953E7E6
:1019A000002051E720F001003067306F20F0040084
:1019B0003067FEF7CFFD054641F28837306F80076C
:1019C0003FF524AFFEF7C6FD401BB8424FF00300C1
:1019D000F4D939E7411E0020B0EB116F01D001208E
:1019E0007047044A5160F021034B19700721906041
:1019F0001160704710E000E023ED00E090F87C10EB
:101A0000012901D1022112E02421C0F880100268CE
:101A10001368116823F0005321F0010111600021C7
:101A2000416613602022C0F8802080F87C100846B0
:101A30007047B0B5044690F87C00012801D102201F
:101A4000B0BD012084F87C002420C4F88000206808
:101A50000568026822F001020260826822F060627A
:101A600011438160204600F0B7FA2068056020200D
:101A7000C4F88000002084F87C00B0BDB0B50446F6
:101A800090F87C00012801D10220B0BD012084F82B
:101A90007C002420C4F8800020680568026822F0D9
:101AA00001020260826822F0604211438160204698
:101AB00000F092FA206805602020C4F88000002021
:101AC00084F87C00B0BD10B5B0B10446D0F88000F9
:101AD00028B9002084F87C00204600F027F8242054
:101AE000C4F880002068016821F0010101602046EF
:101AF00000F032FB012801D1012010BDA06A10B115
:101B0000204600F093FA2068416821F4904141603A
:101B1000816821F02A018160016841F001010160C2
:101B20002046BDE8104000F0E4BA000010B586B0D1
:101B3000044601A81421FEF703FC20685549884299
:101B400020D13848816841F480218160816801F4A6
:101B5000802100910099016841F00801016001A90C
:101B6000006800F00800009000984FF44070019069
:101B7000022002900020CDE90300072005900248D2
:101B8000FEF71EFC06B010BD000C0258FEE7000078
:101B9000F0B587B000262348234CCDE905660168DF
:101BA000002241F0040101604FF48147016801F017
:101BB000040101910199016841F08001016001680F
:101BC00001F0800101910199016841F00201016079
:101BD000016801F0020101910199016841F00801D9
:101BE00001604FF48141006800F008000190019805
:101BF0002046FEF7A3FC4FF4005002900B4802ADC4
:101C0000CDE9030604F580602946FEF7D9FB0120E3
:101C10000297CDE90306204605962946FEF7D0FB3C
:101C200007B0F0BDE0440258000402580000111152
:101C300010B5174C17484FF4E13120600020C4E97B
:101C400001100C21E060C4E9040104F11800142122
:101C5000FEF776FB2046FFF736FF08B1FEF7AEFB36
:101C60000B480021FFF70AFF08B1FEF7A7FB084861
:101C70000021FFF7DEFE08B1FEF7A0FB0448FFF7E6
:101C8000BDFE18B1BDE81040FEF798BB10BD00BF07
:101C90001000002000480040FEE770477047000039
:101CA000F8B5C94FBA6A02F00302032A01D1012034
:101CB00074E00546386820F080600C463860FEF716
:101CC00049FC06463868000105D5FEF743FC801B39
:101CD0000228F7D95FE0B86A4FF47E43696820F4C0
:101CE0007C30AA68013903EB42222B686FF35F2135
:101CF00092B240EA03301144EA684FF4FE03B8623E
:101D000003EB024202F4FE02881829694FF0FE42FA
:101D100002EB016101F0FE410844B863002CF86A4F
:101D200020F0C000696940EA0100F862F86A20F01A
:101D30002000A96940EA0100F8624FF6F871F86ADC
:101D400020F01000F862F86B20EA0100E96940EA2F
:101D5000C100F863F86A40F01000F86205D0012C69
:101D6000F86A06D140F4801005E0F86A40F40020DB
:101D700001E040F40010F862386840F0806038609C
:101D8000FEF7E8FB04463868000106D4FEF7E2FBE4
:101D9000001B0328F7D3032000E0002001B0F0BDB2
:101DA000F8B5894FBA6A02F00302032A01D1012073
:101DB00074E00546386820F080500C463860FEF725
:101DC000C9FB06463868800005D5FEF7C3FB801BBB
:101DD0000228F7D95FE0B86A4FF47E43696820F0C3
:101DE0007C70AA68013903EB42222B686FF35F21F4
:101DF00092B240EA03501144EA684FF4FE03B8621D
:101E000003EB024202F4FE02881829694FF0FE42F9
:101E100002EB016101F0FE4108443864002CF86ACD
:101E200020F44060696940EA0100F862F86A20F431
:101E30000070A96940EA0100F8624FF6F871F86A8B
:101E400020F48070F862786C20EA0100E96940EAC9
:101E5000C1007864F86A40F48070F86205D0012C03
:101E6000F86A06D140F4000005E0F86A40F480000A
:101E700001E040F08070F862386840F080503860CF
:101E8000FEF768FB04463868800006D4FEF762FB64
:101E9000001B0328F7D3032000E0002001B0F0BDB1
:101EA0007047FEF75BBB0000B0B5CCB039A82B4C37
:101EB0004C21FEF745FA31A82021FEF741FA02A88D
:101EC000BC21FEF73DFA0220FEF7DAFB002001906C
:101ED000206840F440402060206800F440400190B9
:101EE0001F48016841F001010160006800F0010035
:101EF0000190019820688004FCD501204FF4A021B6
:101F0000399002243A91CDE9424444907820CDE9B9
:101F100045040420CDE947040C204990002539A848
:101F2000CDE94A55FFF71CFB3F2031900320CDE956
:101F300032050820349040204FF48061CDE935000F
:101F4000CDE9371031A80421FFF756F902A8029411
:101F50001F95FEF7EBFC4CB0B0BD00BF184802580F
:101F60002C04005810B51748D0F88010174C41F4D5
:101F70007001C0F8801014490A6842F001020A603A
:101F800000220A610B6823400B608A61CA610A6201
:101F90008A62CA620A634A638A63CA630A644A64D9
:101FA0000B6823F480230B600A6609490968B2EBC9
:101FB000517F02D10121074A11604FF00061016099
:101FC00010BD00BF08ED00E0004402587FEDF6EAC6
:101FD0000010005C08810051416ED9B180B50168E4
:101FE0008A68C2F342628968490FDFF838C01CF87A
:101FF0000130DFF834E01EF80110DB00B3FBF1F133
:102000001CF802301EF80220DB00B3FBF2F2BDE840
:10201000804001E001210122A0F86A10A0F86820A8
:10202000704700BF2C29000834290008816ACA07BC
:1020300008D00268D0F82CC0536823F4003343EA78
:102040000C0353608A0708D50268D0F830C0536883
:1020500023F4803343EA0C0353604A0708D502682F
:10206000D0F834C0536823F4802343EA0C03536050
:102070000A0708D50268D0F838C0536823F4004333
:1020800043EA0C035360CA0608D50268D0F83CC086
:10209000936823F4805343EA0C0393608A0608D5BF
:1020A0000268D0F840C0936823F4005343EA0C035D
:1020B00093604A0612D50268D0F844C05368BCF554
:1020C000801F23F4801343EA0C03536006D1536846
:1020D00023F4C00C836C43EA0C035360090658BF19
:1020E00070470168C06C4A6822F4002210434860BF
:1020F0007047BCB500210446C0F88810FEF72AFAE4
:10210000216805460A6812070BD56FF07E404FF430
:1021100000110090002220462B4600F08BFB70B986
:102120002168086840070CD56FF07E404FF48001AD
:102130000090002220462B4600F07CFB08B10320D3
:1021400007E02020C4F88000C4F88400002084F850
:102150007C0002B0B0BD00002DE9F04186B004461D
:102160000068D4E9021322699A4D11436269114350
:10217000E2691143676E394307682F40964D394332
:102180000160416821F440511943944B41609842E9
:10219000A1691CBF276A394387682F40904D394396
:1021A0008160A842C16A21F00F07616A47EA01060F
:1021B0008C4FB846C66227D08B4DA84230D08B4D8D
:1021C000A84239D08A4DA84242D08A4DA84200F098
:1021D0004A80894DA84200F05180984200F0598011
:1021E000864DA84200F06080854DA84240F069808D
:1021F0007E6DC6F3C205052D00F263800126DFE87F
:1022000005F0695E626466687F6D07F00705052D5D
:1022100000F257800026DFE805F05D5256585A5C00
:102220007F6D07F00705052D00F24B800026DFE8E3
:1022300005F051464A4C4E507F6D07F00705052DBD
:1022400000F23F800026DFE805F0453A3E40424478
:102250007F6D07F00705052D33D80026DFE805F070
:102260003A2F333537397F6D07F00705052D28D80C
:102270000026DFE805F02F24282A2C2E7F6D07F09A
:102280000705052D1DD80026DFE805F024191D1FC0
:102290002123BF6D07F00705052D12D80226DFE8C0
:1022A00005F0190E121416187F6DC7F3C205052D1F
:1022B00007D80126DFE805F00E0307090B0D0426F9
:1022C00008E0802606E0082604E0102602E020262A
:1022D00000E04026984214D0B2F5004F2ED1082ECF
:1022E0004FF001003CD8DFE816F00900D10093025E
:1022F0009302DB00930293029302EA00FFF792F845
:10230000C6E0402E00F07E80042E00F08F80082E64
:1023100000F09F80102E00F0A580202E00F0AF80EE
:10232000022E40F07482FEF7E3F9616A0B2980F017
:102330008580DFF8F02452F8212084E0082E4FF049
:1023400001002AD8DFE816F00900C3006402640225
:10235000CD00640264026402DC00FFF763F8B8E0B9
:10236000102E00F0D580202E00F0DC80402E40F0B2
:102370004F820A294FF0010000F2E181DFE811F0FD
:10238000F5010B00E401E601E801EA01EC01EE01D0
:10239000F001F201F4010220E7E1102E00F0C88004
:1023A000202E00F0CF80402E40F032820A294FF0DC
:1023B000010000F2E281DFE811F0F6010B00E50117
:1023C000E701E901EB01ED01EF01F101F301F50195
:1023D0000220E8E1F369FFCFFFF4FF11000C005881
:1023E000004400400044025800480040004C0040B7
:1023F0000050004000780040007C00400014014084
:10240000001001400A294FF0010000F20481DFE8CA
:1024100011F018010B00070109010B010D010F015B
:10242000110113011501170102200AE103A8FEF7AB
:1024300071F9616A0B290498FFF47BAF4FF0010238
:1024400008BF4FF48072B0FBF2F3002B40F0FD8028
:10245000B7E16846FEF7E4F9616A0B290198FFF4D9
:1024600068AFEBE7D8F800004246800670D40B292D
:1024700080F0A480DFF8AC0350F82100A3E00B2922
:1024800072D2DFF8A00350F8210072E0FEF7D8FF07
:10249000616A0B290BD2DFF88C2352F821100BE074
:1024A00003A8FEF737F9616A0B290498F3D34FF0BC
:1024B000010108BF4FF48071B0FBF1F095E0684670
:1024C000FEF7AEF9616A0B290198E4D3EFE7FEF756
:1024D000B7FF616A0B290BD2DFF8482352F82110AD
:1024E0000BE003A8FEF716F9616A0B290498F3D3F1
:1024F0004FF0010108BF4FF48071B0FBF1F056E1DD
:102500006846FEF78DF9616A0B290198E4D3EFE77D
:10251000D8F8000080062ED40B295ED2C14850F8AE
:1025200021005FE00B2931D2BE4850F8210032E093
:10253000D8F80000800630D40B2965D2B94850F88D
:10254000210066E00B2932D2B64850F8210033E072
:1025500010680B29C0F3C100B44A22FA00F034D24B
:10256000B04A52F8212035E04FF0010008BF4FF487
:102570008070AD4A67E0D8F800000B29C0F3C100B5
:10258000AA4A22FA00F0FFF486AF90E74FF001006C
:1025900008BF4FF48070A44925E0D8F800000B294B
:1025A000C0F3C100A14A22FA00F095D3A0E74FF092
:1025B000010008BF4FF480709B49F6E04FF0010026
:1025C00008BF4FF48070994A3DE04FF0010208BF08
:1025D0004FF48072B0FBF2F337E04FF0010008BF18
:1025E0004FF480709149B1FBF0F0616840004A08F7
:1025F0001044B0FBF1F04FF6F071014000F007819C
:10260000C0F342000843DAE04FF0010008BF4FF486
:1026100080708649C9E00B2908BF4FF4807010E034
:1026200004200EE006200CE008200AE00A2008E062
:102630000C2006E0102004E0202002E0402000E012
:1026400080204FF40042B2FBF0F3626802EB4200DC
:1026500083424FF00100C0F0DB801703BB4200F261
:10266000D780402E13D0042E20D0082E2ED0102E2E
:1026700034D0202E3FD0022E40F0C980FEF738F82B
:10268000616A0B2919D2674A52F821101AE00A2907
:102690004FF0010000F29780DFE801F0AB069A9C52
:1026A0009EA0A2A4A6A8AA000220A2E003A8FEF76A
:1026B00031F8616A0B290498E5D34FF0010108BF96
:1026C0004FF48071B0FBF1F0626827E06846FEF7D6
:1026D000A7F8616A0B290198D5D3EEE7D8F8000076
:1026E000800652480DD40B2913D34FF0010108BFC7
:1026F0004FF4807110E00B291AD24A4850F821009B
:102700001BE0D8F800300B29C3F3C10320FA03F013
:10271000EBD2444B53F82110B0FBF1F0010E000254
:1027200010EB520041F100010023FDF7D1FD69E0FB
:102730004FF0010008BF4FF480703B495BE00B296C
:1027400008BF4FF4807010E004200EE006200CE07B
:1027500008200AE00A2008E00C2006E0102004E02F
:10276000202002E0402000E080204FF40041B1FB37
:10277000F0F06168420048083AE70B2908BF4FF4BF
:10278000807010E004200EE006200CE008200AE033
:102790000A2008E00C2006E0102004E0202002E0DF
:1027A000402000E080204FF40041B1FBF0F0616870
:1027B00000EB5100B0FBF1F080B2102827D3216864
:1027C000C860002024E00B2908BF4FF4807010E09F
:1027D00004200EE006200CE008200AE00A2008E0B1
:1027E0000C2006E0102004E0202002E0402000E061
:1027F00080204FF40041B1FBF0F0000200EB5200EA
:10280000B0FBF2F0A0F54071094A9142D7D90120FE
:102810004FF001110022C4E91A12226706B0BDE888
:10282000F08100BFF028000800093D000090D003AF
:10283000FFFC0F002DE9F843DDF82080994616468D
:102840000F46044608F101052068C0693840C01BE6
:10285000B0FA80F04009B0421DD1002DF4D0FDF750
:1028600079FEB8F1000F03D0A0EB09004045EBD989
:102870002068016821F4D0710160816821F00101B4
:1028800081602020C4F88000C4F88400002084F80F
:102890007C00032000E0002001B0BDE8F083FEE7EB
:1028A00000F00F02044B09011A44044BB0F1FF3F42
:1028B000C8BFC2181170704714ED00E000E400E0DA
:1028C000FDF756FEFFF7F0FAFFF762F9FFF7B0F9F0
:1028D000FEE702E008C8121F08C1002AFAD17047BB
:1028E0007047002001E001C1121F002AFBD1704790
:1028F00001000000020000000400000006000000CB
:10290000080000000A0000000C0000001000000099
:1029100020000000400000008000000000000000D7
:10292000010203040102030406070809010101036F
:1029300007010000080402040801010160290008E1
:102940000000002010000000D228000870290008B4
:102950001000002090040000E228000800000000A1
:1029600001000000100000000090D0030090D00390
:040000050800029954
:00000001FF
